:0400000064EF3FF07A
:107EA400D350FC0B0209D36ED388D38AD38C9B8C1A
:107EB4001200E8CF0BF0030EE82EFED700F00B2ED5
:107EC400FAD7120000EE01F00A0EEE6AE806FDE1B0
:107ED4000001D0EF3FF0E8CF0CF00D0E0B6EFC0E5E
:107EE400E82EFED70B2EFCD70C2EF7D71200D89015
:107EF4000C340C6E0D340D6EDC0E00D0E82EFDD764
:107F04000C505BEC3FF012008C8003C00CF004C0FA
:107F14000DF079EC3FF08C9003C00CF004C00DF030
:107F240095EC3FF01200D8900C340C6E0D340D6EAD
:107F34002F0E0E6E3A0EE82EFED70E2EFCD700D072
:107F44000C500008400F5BEC3FF01200010E926EE3
:107F5400949495908B948C90C280C294C296C2984B
:107F6400C29AC150F00B0E09C16EC198C19AC0509B
:107F7400F80B0209C06EC050C70B0809C06EC08E52
:107F84007B0ECB6E030ECA12CA84BD80BD82BD8433
:107F9400BD86CF0EBD16000EBE6E120052EC3FF031
:107FA400A8EC3FF0030E6DEC3FF006500510D8A48A
:107FB40008D0000E066E010E056E000E046E0A0E49
:107FC4000BD005040610D8A408D0000E066E000ECF
:107FD400056E000E046E5A0E036E000E0A6E000E3D
:107FE400096E0A50800A800F320ED8B4095CD8B0EA
:0C7FF400DCD786EC3FF0094A0A2AF3D7DC
:020000040020DA
:08000000FFFFFFFFFFFFFFFF00
:020000040030CA
:0E000000FF08191EFF8080FF0FC00FE00F40A9
:00000001FF
