:0400000022EF3FF0BC
:107E3200D350FC0B0209D36ED388D38AD38C9B8C8C
:107E4200120000EE01F00A0EEE6AE806FDE1000102
:107E5200D0EF3FF0E8CF0CF00D0E0B6EFC0EE82ECB
:107E6200FED70B2EFCD70C2EF7D71200A60EE82E4B
:107E7200FED700D00B06D8A00C060C500B10D8B4BD
:107E82001200F4D73A0E0F6E230EE82EFED70F2EF5
:107E9200FCD700F00DC00BF00EC00CF037EC3FF039
:107EA20012008C8003C00DF004C00EF043EC3FF0D2
:107EB2008C9003C00DF004C00EF0A0EC3FF0000E59
:107EC200086E000E076E0850800A800F070ED8B4A5
:107ED200075CD8B00BD0000E116EFF0EE82EFED755
:107EE200112EFCD700F0074A082AEDD71200010E26
:107EF200926E949495908B948C90C280C294C29608
:107F0200C298C29AC150F00B0E09C16EC198C19AB3
:107F1200C050F80B0209C06EC050C70B0809C06EF2
:107F2200C08E7B0ECB6E030ECA12CA84BD80BD8288
:107F3200BD84BD86CF0EBD16000EBE6E12003F0E72
:107F42000F6E8A0EE82EFED70F2EFCD700D00DC082
:107F52000FF00EC010F00F1E101E0F4A102A000E56
:107F62000F240B6E010E10200C6E37EC3FF0000E4A
:107F7200086E000E076E0850800A800F070ED8B4F4
:107F8200075CD8B00BD0000E0F6EFF0EE82EFED7A6
:107F92000F2EFCD700F0074A082AEDD7120019EC81
:107FA2003FF078EC3FF0030E2BEC3FF0065005104B
:107FB200D8A408D0000E066E010E056E000E046EE7
:107FC2001F0E0BD005040610D8A408D0000E066EB2
:107FD200000E056E000E046EC00E036E000E0A6ED9
:107FE200000E096E0A50800A800F320ED8B4095C66
:0E7FF200D8B0DCD752EC3FF0094A0A2AF3D788
:020000040020DA
:08000000FFFFFFFFFFFFFFFF00
:020000040030CA
:0E000000FF08191EFF8080FF0FC00FE00F40A9
:00000001FF
