:0400000049EF3FF095
:107E8000D350FC0B0209D36ED388D38AD38C9B8C3E
:107E9000120000EE01F00A0EEE6AE806FDE10001B4
:107EA00089EF3FF0E8CF0CF00D0E0B6EFC0EE82EC4
:107EB000FED70B2EFCD70C2EF7D71200010E926EB8
:107EC00094949494949094928B948B908B82C2808F
:107ED000C294C296C298C29AC150F00B0E09C16EEC
:107EE000C198C19AC050F80B0209C06EC050C70BB0
:107EF0000809C06EC08E7B0ECB6E030ECA12CA84F8
:107F0000BD80BD82BD84BD86CF0EBD16000EBE6E87
:107F1000120040EC3FF05EEC3FF0030E52EC3FF0FD
:107F2000C282C2B2FED7C450026EC350016E01C0FD
:107F30000DF002C00EF0D8900E320D32D8900E32F5
:107F40000D320DC003F00EC004F0D8900230066E62
:107F50000130056E200E035C000E0458D8A002D03C
:107F6000898201D08992400E035C000E0458D8A08B
:107F700002D0898401D089945C0E035C000E045801
:107F8000D8A002D0898601D08996800E035C000EAD
:107F90000458D8A002D0898801D08998A00E035C2B
:107FA000000E0458D8A002D0898A01D0899AC00E48
:107FB000035C000E0458D8A002D0898C01D0899CA3
:107FC000E00E035C000E0458D8A002D0898E01D0C8
:107FD000899E000E055C010E0658D8A007D0CF0E72
:107FE000BD1605C0BEFF8B908B829AD7CF0EBD16F3
:107FF000055000080D6E0D04BE6E8B808B9290D7DD
:020000040020DA
:08000000FFFFFFFFFFFFFFFF00
:020000040030CA
:0E000000FF08191EFF8080FF0FC00FE00F40A9
:00000001FF
