:040000009BEF0FF073
:101F36000001A5EF0FF0D388D38AD38C030ED312FA
:101F46009B8C12009EEC0FF09390939293888A805C
:101F56008A92000E086E010E076ED8EC0FF08A907A
:101F66008A82000E086E010E076ED8EC0FF0EFD7CE
:101F760001500302F3CF05F0F4CF06F0015004023E
:101F8600F3CFF4FFF36AF3500526F450062202500D
:101F96000302F3CFF4FFF36AF3500526F45006224A
:101FA60005C001F006C002F0120007C001F008C02B
:101FB60002F0000E046E0A0E036EBBEC0FF001C0B9
:101FC6000AF002C00BF0000E0D6E000E0C6E0AD069
:101FD600000E096EFF0EE82EFED7092EFCD700F084
:101FE6000C4A0D2A0D50800A096E0A500C5C0B50E3
:0A1FF600800A0958D8B01200EBD79A
:020000040020DA
:08000000FFFFFFFFFFFFFFFF00
:020000040030CA
:0E000000FF08191E0E8010FF03C003E003402E
:00000001FF
