:040000008AEF3FF054
:107F14000E6A0D6A0001CBEF3FF0E8CF02F00D0EC0
:107F2400016EFC0EE82EFED7012EFCD7022EF7D7E9
:107F34001200E8CF05F0000EC26E000EC06ED8909D
:107F440001303C0BC26E01C003F0033AF00E03167D
:107F5400300E031602500F0B0310C16E05C003F060
:107F6400D8900336D8900336380E031605C004F0B3
:107F7400043A0F0E0416070E04160550800B041065
:107F84000310C06E01AE03D09E9C9D8CF28CC28007
:107F94001200066E000E076E0650066E000E0A6E84
:107FA4000650066E000E0B6E0650066E000E086E2E
:107FB4000650066E000E0C6E0650066E000E096E1C
:107FC4000650D388D38AD38C030ED312000E926E3C
:107FD40093808990FA0E8FEC3FF08980FA0E8FEC33
:107FE4003FF08990FA0E8FEC3FF08990FA0E8FECF7
:0C7FF4003FF08990FA0E8FEC3FF0EBD7C5
:020000040020DA
:08000000FFFFFFFFFFFFFFFF00
:020000040030CA
:0E0000000008191EFF83A1FF0FC00FE00F4084
:00000001FF
